{
  "contractName": "ItemManager",
  "abi": [
    {
      "anonymous": false,
      "inputs": [
        {
          "indexed": false,
          "internalType": "uint256",
          "name": "_itemIndex",
          "type": "uint256"
        },
        {
          "indexed": false,
          "internalType": "uint256",
          "name": "_step",
          "type": "uint256"
        },
        {
          "indexed": false,
          "internalType": "address",
          "name": "_address",
          "type": "address"
        }
      ],
      "name": "SupplyChainStep",
      "type": "event"
    },
    {
      "inputs": [
        {
          "internalType": "uint256",
          "name": "",
          "type": "uint256"
        }
      ],
      "name": "items",
      "outputs": [
        {
          "internalType": "contract Item",
          "name": "_item",
          "type": "address"
        },
        {
          "internalType": "enum ItemManager.SupplyChainSteps",
          "name": "_step",
          "type": "uint8"
        },
        {
          "internalType": "string",
          "name": "_identifier",
          "type": "string"
        }
      ],
      "stateMutability": "view",
      "type": "function",
      "constant": true
    },
    {
      "inputs": [
        {
          "internalType": "string",
          "name": "_identifier",
          "type": "string"
        },
        {
          "internalType": "uint256",
          "name": "_priceInWei",
          "type": "uint256"
        }
      ],
      "name": "createItem",
      "outputs": [],
      "stateMutability": "nonpayable",
      "type": "function"
    },
    {
      "inputs": [
        {
          "internalType": "uint256",
          "name": "_index",
          "type": "uint256"
        }
      ],
      "name": "triggerPayment",
      "outputs": [],
      "stateMutability": "payable",
      "type": "function",
      "payable": true
    },
    {
      "inputs": [
        {
          "internalType": "uint256",
          "name": "_index",
          "type": "uint256"
        }
      ],
      "name": "triggerDelivery",
      "outputs": [],
      "stateMutability": "nonpayable",
      "type": "function"
    }
  ],
  "bytecode": "0x608060405234801561001057600080fd5b50610fb9806100206000396000f3fe60806040526004361061003f5760003560e01c8063800fb83f146100445780638c55174214610072578063bfb231d214610144578063cd31831e14610227575b600080fd5b6100706004803603602081101561005a57600080fd5b8101908080359060200190929190505050610262565b005b34801561007e57600080fd5b506101426004803603604081101561009557600080fd5b81019080803590602001906401000000008111156100b257600080fd5b8201836020820111156100c457600080fd5b803590602001918460018302840111640100000000831117156100e657600080fd5b91908080601f016020809104026020016040519081016040528093929190818152602001838380828437600081840152601f19601f8201169050808301925050505050505091929192908035906020019092919050505061056d565b005b34801561015057600080fd5b5061017d6004803603602081101561016757600080fd5b810190808035906020019092919050505061072d565b604051808473ffffffffffffffffffffffffffffffffffffffff1681526020018360028111156101a957fe5b815260200180602001828103825283818151815260200191508051906020019080838360005b838110156101ea5780820151818401526020810190506101cf565b50505050905090810190601f1680156102175780820380516001836020036101000a031916815260200191505b5094505050505060405180910390f35b34801561023357600080fd5b506102606004803603602081101561024a57600080fd5b810190808035906020019092919050505061081c565b005b600080600083815260200190815260200160002060000160009054906101000a900473ffffffffffffffffffffffffffffffffffffffff1690503373ffffffffffffffffffffffffffffffffffffffff168173ffffffffffffffffffffffffffffffffffffffff1614610320576040517f08c379a000000000000000000000000000000000000000000000000000000000815260040180806020018281038252602c815260200180610f12602c913960400191505060405180910390fd5b348173ffffffffffffffffffffffffffffffffffffffff16633c8da5886040518163ffffffff1660e01b815260040160206040518083038186803b15801561036757600080fd5b505afa15801561037b573d6000803e3d6000fd5b505050506040513d602081101561039157600080fd5b810190808051906020019092919050505014610415576040517f08c379a00000000000000000000000000000000000000000000000000000000081526004018080602001828103825260128152602001807f4e6f742066756c6c79207061696420796574000000000000000000000000000081525060200191505060405180910390fd5b6000600281111561042257fe5b600080600154815260200190815260200160002060000160149054906101000a900460ff16600281111561045257fe5b146104a8576040517f08c379a0000000000000000000000000000000000000000000000000000000008152600401808060200182810382526023815260200180610f3e6023913960400191505060405180910390fd5b600160008084815260200190815260200160002060000160146101000a81548160ff021916908360028111156104da57fe5b02179055507fa4035636e99f06b7651a604c1019fa4e8779fe68ef27eeb74dff2de348f6199b8260008085815260200190815260200160002060000160149054906101000a900460ff16600281111561052f57fe5b83604051808481526020018381526020018273ffffffffffffffffffffffffffffffffffffffff168152602001935050505060405180910390a15050565b60003082600154604051610580906109a6565b808473ffffffffffffffffffffffffffffffffffffffff1681526020018381526020018281526020019350505050604051809103906000f0801580156105ca573d6000803e3d6000fd5b50905080600080600154815260200190815260200160002060000160006101000a81548173ffffffffffffffffffffffffffffffffffffffff021916908373ffffffffffffffffffffffffffffffffffffffff1602179055506000806000600154815260200190815260200160002060000160146101000a81548160ff0219169083600281111561065757fe5b021790555082600080600154815260200190815260200160002060010190805190602001906106879291906109b3565b507fa4035636e99f06b7651a604c1019fa4e8779fe68ef27eeb74dff2de348f6199b600154600080600154815260200190815260200160002060000160149054906101000a900460ff1660028111156106dc57fe5b83604051808481526020018381526020018273ffffffffffffffffffffffffffffffffffffffff168152602001935050505060405180910390a1600160008154809291906001019190505550505050565b60006020528060005260406000206000915090508060000160009054906101000a900473ffffffffffffffffffffffffffffffffffffffff16908060000160149054906101000a900460ff1690806001018054600181600116156101000203166002900480601f0160208091040260200160405190810160405280929190818152602001828054600181600116156101000203166002900480156108125780601f106107e757610100808354040283529160200191610812565b820191906000526020600020905b8154815290600101906020018083116107f557829003601f168201915b5050505050905083565b6001600281111561082957fe5b60008083815260200190815260200160002060000160149054906101000a900460ff16600281111561085757fe5b146108ad576040517f08c379a0000000000000000000000000000000000000000000000000000000008152600401808060200182810382526023815260200180610f616023913960400191505060405180910390fd5b600260008083815260200190815260200160002060000160146101000a81548160ff021916908360028111156108df57fe5b02179055507fa4035636e99f06b7651a604c1019fa4e8779fe68ef27eeb74dff2de348f6199b8160008084815260200190815260200160002060000160149054906101000a900460ff16600281111561093457fe5b60008085815260200190815260200160002060000160009054906101000a900473ffffffffffffffffffffffffffffffffffffffff16604051808481526020018381526020018273ffffffffffffffffffffffffffffffffffffffff168152602001935050505060405180910390a150565b6104b380610a5f83390190565b828054600181600116156101000203166002900490600052602060002090601f0160209004810192826109e95760008555610a30565b82601f10610a0257805160ff1916838001178555610a30565b82800160010185558215610a30579182015b82811115610a2f578251825591602001919060010190610a14565b5b509050610a3d9190610a41565b5090565b5b80821115610a5a576000816000905550600101610a42565b509056fe608060405234801561001057600080fd5b506040516104b33803806104b38339818101604052606081101561003357600080fd5b81019080805190602001909291908051906020019092919080519060200190929190505050816000819055508060028190555082600360006101000a81548173ffffffffffffffffffffffffffffffffffffffff021916908373ffffffffffffffffffffffffffffffffffffffff1602179055505050506103fa806100b96000396000f3fe6080604052600436106100385760003560e01c80632986c0e51461030f5780633c8da5881461033a57806383d12eef1461036557610300565b36610300576000543414610097576040517f08c379a00000000000000000000000000000000000000000000000000000000081526004018080602001828103825260228152602001806103a36022913960400191505060405180910390fd5b60006001541415610110576040517f08c379a00000000000000000000000000000000000000000000000000000000081526004018080602001828103825260148152602001807f4974656d20697320616c7265647920706169642100000000000000000000000081525060200191505060405180910390fd5b346001600082825401925050819055506000600360009054906101000a900473ffffffffffffffffffffffffffffffffffffffff1673ffffffffffffffffffffffffffffffffffffffff1634600254604051602401808281526020019150506040516020818303038152906040527f800fb83f000000000000000000000000000000000000000000000000000000007bffffffffffffffffffffffffffffffffffffffffffffffffffffffff19166020820180517bffffffffffffffffffffffffffffffffffffffffffffffffffffffff83818316178352505050506040518082805190602001908083835b6020831061021f57805182526020820191506020810190506020830392506101fc565b6001836020036101000a03801982511681845116808217855250505050505090500191505060006040518083038185875af1925050503d8060008114610281576040519150601f19603f3d011682016040523d82523d6000602084013e610286565b606091505b50509050806102fd576040517f08c379a00000000000000000000000000000000000000000000000000000000081526004018080602001828103825260158152602001807f64656c697665727920646964206e6f7420776f726b000000000000000000000081525060200191505060405180910390fd5b50005b34801561030c57600080fd5b50005b34801561031b57600080fd5b50610324610390565b6040518082815260200191505060405180910390f35b34801561034657600080fd5b5061034f610396565b6040518082815260200191505060405180910390f35b34801561037157600080fd5b5061037a61039c565b6040518082815260200191505060405180910390f35b60025481565b60005481565b6001548156fe576520646f6e277420737570706f7274207061727469616c20207061796d656e7473a264697066735822122012118a20ded187ba65cb749a4c790a457177a50e7e61373007890854e630a8b664736f6c634300070600334f6e6c79206974656d732061726520616c6c6f77656420746f20757064617465207468656d2073656c7665734974656d206973206675727468657220696e2074686520737570706c7920636861696e4974656d206973206675727468657220696e2074686520737970706c7920636861696ea264697066735822122058438c432db28b80b796f60f821a445c9017b791c882e4042c4ae400377d10d564736f6c63430007060033",
  "immutableReferences": {},
  "source": "//SPDX-License-Identifier: MIT\n\npragma solidity ^0.7.0;\n\nimport \"./Item.sol\";\n\ncontract ItemManager{\n\nenum SupplyChainSteps{Created, Paid, Delivered}\n\nstruct S_item {\n   Item _item;\n   ItemManager.SupplyChainSteps _step;\n   string _identifier;\n}\nmapping(uint => S_item) public items;\n\nuint index;\n\nevent SupplyChainStep(uint _itemIndex, uint _step, address _address);\n\n   function createItem(string memory _identifier, uint _priceInWei) public {\n      Item item = new Item(this, _priceInWei, index);\n      items[index]._item = item;\n      items[index]._step = SupplyChainSteps.Created;\n      items[index]._identifier = _identifier;\n\n   emit SupplyChainStep(index, uint(items[index]._step), address(item));\n   index++;\n}\n   function triggerPayment(uint _index)public payable{\n   Item item = items[_index]._item;\n   require(address(item)== msg.sender, \"Only items are allowed to update them selves\");\n   require(item.priceInWei() == msg.value, \"Not fully paid yet\");\n   require(items[index]._step == SupplyChainSteps.Created,\n\t  \"Item is further in the supply chain\");\n   items [_index]._step = SupplyChainSteps.Paid;\n   emit SupplyChainStep(_index, uint(items[_index]._step), address(item));\n   }\n\n   function triggerDelivery(uint _index) public {\n   require(items[_index]._step == SupplyChainSteps.Paid,\n      \"Item is further in the sypply chain\");\n   \n\n   items [_index]._step = SupplyChainSteps.Delivered;\n   emit SupplyChainStep(_index, uint(items[_index]._step), address(items[_index]._item));\n\n   }\n}\n",
  "sourcePath": "/home/nicoarkano/Solidity-Project/contracts/ItemManager.sol",
  "compiler": {
    "name": "solc",
    "version": "0.7.6+commit.7338295f.Emscripten.clang"
  },
  "schemaVersion": "3.4.1",
  "updatedAt": "2021-07-19T18:46:36.102Z",
  "networkType": "ethereum",
  "devdoc": {
    "kind": "dev",
    "methods": {},
    "version": 1
  },
  "userdoc": {
    "kind": "user",
    "methods": {},
    "version": 1
  }
}